{"abi":[{"type":"constructor","inputs":[{"name":"_owner","type":"address","internalType":"address"},{"name":"_eip7702","type":"address","internalType":"address"}],"stateMutability":"nonpayable"},{"type":"receive","stateMutability":"payable"},{"type":"function","name":"DEFAULT_ADMIN_ROLE","inputs":[],"outputs":[{"name":"","type":"bytes32","internalType":"bytes32"}],"stateMutability":"view"},{"type":"function","name":"EXECUTOR_ROLE","inputs":[],"outputs":[{"name":"","type":"bytes32","internalType":"bytes32"}],"stateMutability":"view"},{"type":"function","name":"OWNER_ROLE","inputs":[],"outputs":[{"name":"","type":"bytes32","internalType":"bytes32"}],"stateMutability":"view"},{"type":"function","name":"eip7702","inputs":[],"outputs":[{"name":"","type":"address","internalType":"address"}],"stateMutability":"view"},{"type":"function","name":"getRoleAdmin","inputs":[{"name":"role","type":"bytes32","internalType":"bytes32"}],"outputs":[{"name":"","type":"bytes32","internalType":"bytes32"}],"stateMutability":"view"},{"type":"function","name":"grantRole","inputs":[{"name":"role","type":"bytes32","internalType":"bytes32"},{"name":"account","type":"address","internalType":"address"}],"outputs":[],"stateMutability":"nonpayable"},{"type":"function","name":"hasRole","inputs":[{"name":"role","type":"bytes32","internalType":"bytes32"},{"name":"account","type":"address","internalType":"address"}],"outputs":[{"name":"","type":"bool","internalType":"bool"}],"stateMutability":"view"},{"type":"function","name":"owner","inputs":[],"outputs":[{"name":"","type":"address","internalType":"address"}],"stateMutability":"view"},{"type":"function","name":"renounceRole","inputs":[{"name":"role","type":"bytes32","internalType":"bytes32"},{"name":"callerConfirmation","type":"address","internalType":"address"}],"outputs":[],"stateMutability":"nonpayable"},{"type":"function","name":"revokeRole","inputs":[{"name":"role","type":"bytes32","internalType":"bytes32"},{"name":"account","type":"address","internalType":"address"}],"outputs":[],"stateMutability":"nonpayable"},{"type":"function","name":"send","inputs":[{"name":"to","type":"address","internalType":"address"},{"name":"amount","type":"uint256","internalType":"uint256"},{"name":"timestamp","type":"uint256","internalType":"uint256"},{"name":"signature","type":"bytes","internalType":"bytes"},{"name":"sender","type":"address","internalType":"address"}],"outputs":[],"stateMutability":"payable"},{"type":"function","name":"sendERC20","inputs":[{"name":"token","type":"address","internalType":"address"},{"name":"to","type":"address","internalType":"address"},{"name":"amount","type":"uint256","internalType":"uint256"},{"name":"timestamp","type":"uint256","internalType":"uint256"},{"name":"signature","type":"bytes","internalType":"bytes"},{"name":"sender","type":"address","internalType":"address"}],"outputs":[],"stateMutability":"nonpayable"},{"type":"function","name":"supportsInterface","inputs":[{"name":"interfaceId","type":"bytes4","internalType":"bytes4"}],"outputs":[{"name":"","type":"bool","internalType":"bool"}],"stateMutability":"view"},{"type":"function","name":"usedSignatures","inputs":[{"name":"","type":"bytes32","internalType":"bytes32"}],"outputs":[{"name":"","type":"bool","internalType":"bool"}],"stateMutability":"view"},{"type":"event","name":"RoleAdminChanged","inputs":[{"name":"role","type":"bytes32","indexed":true,"internalType":"bytes32"},{"name":"previousAdminRole","type":"bytes32","indexed":true,"internalType":"bytes32"},{"name":"newAdminRole","type":"bytes32","indexed":true,"internalType":"bytes32"}],"anonymous":false},{"type":"event","name":"RoleGranted","inputs":[{"name":"role","type":"bytes32","indexed":true,"internalType":"bytes32"},{"name":"account","type":"address","indexed":true,"internalType":"address"},{"name":"sender","type":"address","indexed":true,"internalType":"address"}],"anonymous":false},{"type":"event","name":"RoleRevoked","inputs":[{"name":"role","type":"bytes32","indexed":true,"internalType":"bytes32"},{"name":"account","type":"address","indexed":true,"internalType":"address"},{"name":"sender","type":"address","indexed":true,"internalType":"address"}],"anonymous":false},{"type":"error","name":"AccessControlBadConfirmation","inputs":[]},{"type":"error","name":"AccessControlUnauthorizedAccount","inputs":[{"name":"account","type":"address","internalType":"address"},{"name":"neededRole","type":"bytes32","internalType":"bytes32"}]},{"type":"error","name":"ECDSAInvalidSignature","inputs":[]},{"type":"error","name":"ECDSAInvalidSignatureLength","inputs":[{"name":"length","type":"uint256","internalType":"uint256"}]},{"type":"error","name":"ECDSAInvalidSignatureS","inputs":[{"name":"s","type":"bytes32","internalType":"bytes32"}]}],"bytecode":{"object":"0x608060405234801561000f575f5ffd5b50604051611e72380380611e728339818101604052810190610031919061036b565b8160015f6101000a81548173ffffffffffffffffffffffffffffffffffffffff021916908373ffffffffffffffffffffffffffffffffffffffff1602179055508060025f6101000a81548173ffffffffffffffffffffffffffffffffffffffff021916908373ffffffffffffffffffffffffffffffffffffffff1602179055506101027fb19546dff01e856fb3f010c267a7b1c60363cf8a4664e21cc89c26224620214e60015f9054906101000a900473ffffffffffffffffffffffffffffffffffffffff166101ae60201b60201c565b506101547fd8aa0f3194971a2a116679f7c2090f6939c8d4e01a2a8d7e41d55e5351469e6360015f9054906101000a900473ffffffffffffffffffffffffffffffffffffffff166101ae60201b60201c565b506101a67fd8aa0f3194971a2a116679f7c2090f6939c8d4e01a2a8d7e41d55e5351469e6360025f9054906101000a900473ffffffffffffffffffffffffffffffffffffffff166101ae60201b60201c565b5050506103a9565b5f6101bf83836102a360201b60201c565b6102995760015f5f8581526020019081526020015f205f015f8473ffffffffffffffffffffffffffffffffffffffff1673ffffffffffffffffffffffffffffffffffffffff1681526020019081526020015f205f6101000a81548160ff02191690831515021790555061023661030660201b60201c565b73ffffffffffffffffffffffffffffffffffffffff168273ffffffffffffffffffffffffffffffffffffffff16847f2f8788117e7eff1d82e926ec794901d17c78024a50270940304540a733656f0d60405160405180910390a46001905061029d565b5f90505b92915050565b5f5f5f8481526020019081526020015f205f015f8373ffffffffffffffffffffffffffffffffffffffff1673ffffffffffffffffffffffffffffffffffffffff1681526020019081526020015f205f9054906101000a900460ff16905092915050565b5f33905090565b5f5ffd5b5f73ffffffffffffffffffffffffffffffffffffffff82169050919050565b5f61033a82610311565b9050919050565b61034a81610330565b8114610354575f5ffd5b50565b5f8151905061036581610341565b92915050565b5f5f604083850312156103815761038061030d565b5b5f61038e85828601610357565b925050602061039f85828601610357565b9150509250929050565b611abc806103b65f395ff3fe6080604052600436106100e0575f3560e01c80638da5cb5b1161007e578063d547741f11610058578063d547741f146102bf578063e58378bb146102e7578063f3cf024f14610311578063f978fd611461032d576100e7565b80638da5cb5b1461022f57806391d1485414610259578063a217fddf14610295576100e7565b8063248a9ca3116100ba578063248a9ca3146101795780632f2ff15d146101b557806336568abe146101dd578063701f97c214610205576100e7565b806301ffc9a7146100eb57806307bd0265146101275780630fc32b2f14610151576100e7565b366100e757005b5f5ffd5b3480156100f6575f5ffd5b50610111600480360381019061010c9190611158565b610369565b60405161011e919061119d565b60405180910390f35b348015610132575f5ffd5b5061013b6103e2565b60405161014891906111ce565b60405180910390f35b34801561015c575f5ffd5b50610177600480360381019061017291906113b0565b610406565b005b348015610184575f5ffd5b5061019f600480360381019061019a919061147f565b61071f565b6040516101ac91906111ce565b60405180910390f35b3480156101c0575f5ffd5b506101db60048036038101906101d691906114aa565b61073b565b005b3480156101e8575f5ffd5b5061020360048036038101906101fe91906114aa565b61075d565b005b348015610210575f5ffd5b506102196107d8565b60405161022691906114f7565b60405180910390f35b34801561023a575f5ffd5b506102436107fd565b60405161025091906114f7565b60405180910390f35b348015610264575f5ffd5b5061027f600480360381019061027a91906114aa565b610822565b60405161028c919061119d565b60405180910390f35b3480156102a0575f5ffd5b506102a9610885565b6040516102b691906111ce565b60405180910390f35b3480156102ca575f5ffd5b506102e560048036038101906102e091906114aa565b61088b565b005b3480156102f2575f5ffd5b506102fb6108ad565b60405161030891906111ce565b60405180910390f35b61032b60048036038101906103269190611510565b6108d1565b005b348015610338575f5ffd5b50610353600480360381019061034e919061147f565b610b33565b604051610360919061119d565b60405180910390f35b5f7f7965db0b000000000000000000000000000000000000000000000000000000007bffffffffffffffffffffffffffffffffffffffffffffffffffffffff1916827bffffffffffffffffffffffffffffffffffffffffffffffffffffffff191614806103db57506103da82610b50565b5b9050919050565b7fd8aa0f3194971a2a116679f7c2090f6939c8d4e01a2a8d7e41d55e5351469e6381565b6104307fd8aa0f3194971a2a116679f7c2090f6939c8d4e01a2a8d7e41d55e5351469e6333610822565b61046f576040517f08c379a0000000000000000000000000000000000000000000000000000000008152600401610466906115fd565b60405180910390fd5b5f8673ffffffffffffffffffffffffffffffffffffffff166370a08231306040518263ffffffff1660e01b81526004016104a991906114f7565b602060405180830381865afa1580156104c4573d5f5f3e3d5ffd5b505050506040513d601f19601f820116820180604052508101906104e8919061162f565b90508481101561052d576040517f08c379a0000000000000000000000000000000000000000000000000000000008152600401610524906116ca565b60405180910390fd5b5f878787878660405160200161054795949392919061174d565b6040516020818303038152906040528051906020012090505f61056982610bb9565b905060035f8281526020019081526020015f205f9054906101000a900460ff16156105c9576040517f08c379a00000000000000000000000000000000000000000000000000000000081526004016105c0906117f5565b60405180910390fd5b5f6105dd8683610bec90919063ffffffff16565b905060015f9054906101000a900473ffffffffffffffffffffffffffffffffffffffff1673ffffffffffffffffffffffffffffffffffffffff168173ffffffffffffffffffffffffffffffffffffffff161461066e576040517f08c379a00000000000000000000000000000000000000000000000000000000081526004016106659061185d565b60405180910390fd5b600160035f8481526020019081526020015f205f6101000a81548160ff0219169083151502179055508973ffffffffffffffffffffffffffffffffffffffff1663a9059cbb8a8a6040518363ffffffff1660e01b81526004016106d292919061188a565b6020604051808303815f875af11580156106ee573d5f5f3e3d5ffd5b505050506040513d601f19601f8201168201806040525081019061071291906118db565b5050505050505050505050565b5f5f5f8381526020019081526020015f20600101549050919050565b6107448261071f565b61074d81610c16565b6107578383610c2a565b50505050565b610765610d13565b73ffffffffffffffffffffffffffffffffffffffff168173ffffffffffffffffffffffffffffffffffffffff16146107c9576040517f6697b23200000000000000000000000000000000000000000000000000000000815260040160405180910390fd5b6107d38282610d1a565b505050565b60025f9054906101000a900473ffffffffffffffffffffffffffffffffffffffff1681565b60015f9054906101000a900473ffffffffffffffffffffffffffffffffffffffff1681565b5f5f5f8481526020019081526020015f205f015f8373ffffffffffffffffffffffffffffffffffffffff1673ffffffffffffffffffffffffffffffffffffffff1681526020019081526020015f205f9054906101000a900460ff16905092915050565b5f5f1b81565b6108948261071f565b61089d81610c16565b6108a78383610d1a565b50505050565b7fb19546dff01e856fb3f010c267a7b1c60363cf8a4664e21cc89c26224620214e81565b6108fb7fd8aa0f3194971a2a116679f7c2090f6939c8d4e01a2a8d7e41d55e5351469e6333610822565b61093a576040517f08c379a0000000000000000000000000000000000000000000000000000000008152600401610931906115fd565b60405180910390fd5b8347101561097d576040517f08c379a000000000000000000000000000000000000000000000000000000000815260040161097490611950565b60405180910390fd5b5f85858584604051602001610995949392919061196e565b6040516020818303038152906040528051906020012090505f6109b782610bb9565b905060035f8281526020019081526020015f205f9054906101000a900460ff1615610a17576040517f08c379a0000000000000000000000000000000000000000000000000000000008152600401610a0e906117f5565b60405180910390fd5b5f610a2b8583610bec90919063ffffffff16565b905060015f9054906101000a900473ffffffffffffffffffffffffffffffffffffffff1673ffffffffffffffffffffffffffffffffffffffff168173ffffffffffffffffffffffffffffffffffffffff1614610abc576040517f08c379a0000000000000000000000000000000000000000000000000000000008152600401610ab39061185d565b60405180910390fd5b600160035f8481526020019081526020015f205f6101000a81548160ff0219169083151502179055508773ffffffffffffffffffffffffffffffffffffffff166108fc8890811502906040515f60405180830381858888f19350505050158015610b28573d5f5f3e3d5ffd5b505050505050505050565b6003602052805f5260405f205f915054906101000a900460ff1681565b5f7f01ffc9a7000000000000000000000000000000000000000000000000000000007bffffffffffffffffffffffffffffffffffffffffffffffffffffffff1916827bffffffffffffffffffffffffffffffffffffffffffffffffffffffff1916149050919050565b5f7f19457468657265756d205369676e6564204d6573736167653a0a3332000000005f5281601c52603c5f209050919050565b5f5f5f5f610bfa8686610e03565b925092509250610c0a8282610e58565b82935050505092915050565b610c2781610c22610d13565b610fba565b50565b5f610c358383610822565b610d095760015f5f8581526020019081526020015f205f015f8473ffffffffffffffffffffffffffffffffffffffff1673ffffffffffffffffffffffffffffffffffffffff1681526020019081526020015f205f6101000a81548160ff021916908315150217905550610ca6610d13565b73ffffffffffffffffffffffffffffffffffffffff168273ffffffffffffffffffffffffffffffffffffffff16847f2f8788117e7eff1d82e926ec794901d17c78024a50270940304540a733656f0d60405160405180910390a460019050610d0d565b5f90505b92915050565b5f33905090565b5f610d258383610822565b15610df9575f5f5f8581526020019081526020015f205f015f8473ffffffffffffffffffffffffffffffffffffffff1673ffffffffffffffffffffffffffffffffffffffff1681526020019081526020015f205f6101000a81548160ff021916908315150217905550610d96610d13565b73ffffffffffffffffffffffffffffffffffffffff168273ffffffffffffffffffffffffffffffffffffffff16847ff6391f5c32d9c69d2a47ea670b442974b53935d1edc7fd64eb21e047a839171b60405160405180910390a460019050610dfd565b5f90505b92915050565b5f5f5f6041845103610e43575f5f5f602087015192506040870151915060608701515f1a9050610e358882858561100b565b955095509550505050610e51565b5f600285515f1b9250925092505b9250925092565b5f6003811115610e6b57610e6a6119bb565b5b826003811115610e7e57610e7d6119bb565b5b0315610fb65760016003811115610e9857610e976119bb565b5b826003811115610eab57610eaa6119bb565b5b03610ee2576040517ff645eedf00000000000000000000000000000000000000000000000000000000815260040160405180910390fd5b60026003811115610ef657610ef56119bb565b5b826003811115610f0957610f086119bb565b5b03610f4d57805f1c6040517ffce698f7000000000000000000000000000000000000000000000000000000008152600401610f4491906119e8565b60405180910390fd5b600380811115610f6057610f5f6119bb565b5b826003811115610f7357610f726119bb565b5b03610fb557806040517fd78bce0c000000000000000000000000000000000000000000000000000000008152600401610fac91906111ce565b60405180910390fd5b5b5050565b610fc48282610822565b6110075780826040517fe2517d3f000000000000000000000000000000000000000000000000000000008152600401610ffe929190611a01565b60405180910390fd5b5050565b5f5f5f7f7fffffffffffffffffffffffffffffff5d576e7357a4501ddfe92f46681b20a0845f1c1115611047575f6003859250925092506110e8565b5f6001888888886040515f815260200160405260405161106a9493929190611a43565b6020604051602081039080840390855afa15801561108a573d5f5f3e3d5ffd5b5050506020604051035190505f73ffffffffffffffffffffffffffffffffffffffff168173ffffffffffffffffffffffffffffffffffffffff16036110db575f60015f5f1b935093509350506110e8565b805f5f5f1b935093509350505b9450945094915050565b5f604051905090565b5f5ffd5b5f5ffd5b5f7fffffffff0000000000000000000000000000000000000000000000000000000082169050919050565b61113781611103565b8114611141575f5ffd5b50565b5f813590506111528161112e565b92915050565b5f6020828403121561116d5761116c6110fb565b5b5f61117a84828501611144565b91505092915050565b5f8115159050919050565b61119781611183565b82525050565b5f6020820190506111b05f83018461118e565b92915050565b5f819050919050565b6111c8816111b6565b82525050565b5f6020820190506111e15f8301846111bf565b92915050565b5f73ffffffffffffffffffffffffffffffffffffffff82169050919050565b5f611210826111e7565b9050919050565b61122081611206565b811461122a575f5ffd5b50565b5f8135905061123b81611217565b92915050565b5f819050919050565b61125381611241565b811461125d575f5ffd5b50565b5f8135905061126e8161124a565b92915050565b5f5ffd5b5f5ffd5b5f601f19601f8301169050919050565b7f4e487b71000000000000000000000000000000000000000000000000000000005f52604160045260245ffd5b6112c28261127c565b810181811067ffffffffffffffff821117156112e1576112e061128c565b5b80604052505050565b5f6112f36110f2565b90506112ff82826112b9565b919050565b5f67ffffffffffffffff82111561131e5761131d61128c565b5b6113278261127c565b9050602081019050919050565b828183375f83830152505050565b5f61135461134f84611304565b6112ea565b9050828152602081018484840111156113705761136f611278565b5b61137b848285611334565b509392505050565b5f82601f83011261139757611396611274565b5b81356113a7848260208601611342565b91505092915050565b5f5f5f5f5f5f60c087890312156113ca576113c96110fb565b5b5f6113d789828a0161122d565b96505060206113e889828a0161122d565b95505060406113f989828a01611260565b945050606061140a89828a01611260565b935050608087013567ffffffffffffffff81111561142b5761142a6110ff565b5b61143789828a01611383565b92505060a061144889828a0161122d565b9150509295509295509295565b61145e816111b6565b8114611468575f5ffd5b50565b5f8135905061147981611455565b92915050565b5f60208284031215611494576114936110fb565b5b5f6114a18482850161146b565b91505092915050565b5f5f604083850312156114c0576114bf6110fb565b5b5f6114cd8582860161146b565b92505060206114de8582860161122d565b9150509250929050565b6114f181611206565b82525050565b5f60208201905061150a5f8301846114e8565b92915050565b5f5f5f5f5f60a08688031215611529576115286110fb565b5b5f6115368882890161122d565b955050602061154788828901611260565b945050604061155888828901611260565b935050606086013567ffffffffffffffff811115611579576115786110ff565b5b61158588828901611383565b92505060806115968882890161122d565b9150509295509295909350565b5f82825260208201905092915050565b7f4e6f74206578656375746f7200000000000000000000000000000000000000005f82015250565b5f6115e7600c836115a3565b91506115f2826115b3565b602082019050919050565b5f6020820190508181035f830152611614816115db565b9050919050565b5f815190506116298161124a565b92915050565b5f60208284031215611644576116436110fb565b5b5f6116518482850161161b565b91505092915050565b7f4e6f7420656e6f75676820546f6b656e732062616c616e636520696e20636f6e5f8201527f7472616374000000000000000000000000000000000000000000000000000000602082015250565b5f6116b46025836115a3565b91506116bf8261165a565b604082019050919050565b5f6020820190508181035f8301526116e1816116a8565b9050919050565b5f8160601b9050919050565b5f6116fe826116e8565b9050919050565b5f61170f826116f4565b9050919050565b61172761172282611206565b611705565b82525050565b5f819050919050565b61174761174282611241565b61172d565b82525050565b5f6117588288611716565b6014820191506117688287611716565b6014820191506117788286611736565b6020820191506117888285611736565b6020820191506117988284611716565b6014820191508190509695505050505050565b7f5369676e617475726520616c72656164792075736564000000000000000000005f82015250565b5f6117df6016836115a3565b91506117ea826117ab565b602082019050919050565b5f6020820190508181035f83015261180c816117d3565b9050919050565b7f496e76616c6964207369676e61747572650000000000000000000000000000005f82015250565b5f6118476011836115a3565b915061185282611813565b602082019050919050565b5f6020820190508181035f8301526118748161183b565b9050919050565b61188481611241565b82525050565b5f60408201905061189d5f8301856114e8565b6118aa602083018461187b565b9392505050565b6118ba81611183565b81146118c4575f5ffd5b50565b5f815190506118d5816118b1565b92915050565b5f602082840312156118f0576118ef6110fb565b5b5f6118fd848285016118c7565b91505092915050565b7f4e6f7420656e6f7567682062616c616e636520696e20636f6e747261637400005f82015250565b5f61193a601e836115a3565b915061194582611906565b602082019050919050565b5f6020820190508181035f8301526119678161192e565b9050919050565b5f6119798287611716565b6014820191506119898286611736565b6020820191506119998285611736565b6020820191506119a98284611716565b60148201915081905095945050505050565b7f4e487b71000000000000000000000000000000000000000000000000000000005f52602160045260245ffd5b5f6020820190506119fb5f83018461187b565b92915050565b5f604082019050611a145f8301856114e8565b611a2160208301846111bf565b9392505050565b5f60ff82169050919050565b611a3d81611a28565b82525050565b5f608082019050611a565f8301876111bf565b611a636020830186611a34565b611a7060408301856111bf565b611a7d60608301846111bf565b9594505050505056fea26469706673582212206173859601c7ae6446ee0812494bb5e291635859cc35ff30e4e427b88dcc2e7564736f6c634300081d0033","linkReferences":{}},"methodIdentifiers":{"DEFAULT_ADMIN_ROLE()":"a217fddf","EXECUTOR_ROLE()":"07bd0265","OWNER_ROLE()":"e58378bb","eip7702()":"701f97c2","getRoleAdmin(bytes32)":"248a9ca3","grantRole(bytes32,address)":"2f2ff15d","hasRole(bytes32,address)":"91d14854","owner()":"8da5cb5b","renounceRole(bytes32,address)":"36568abe","revokeRole(bytes32,address)":"d547741f","send(address,uint256,uint256,bytes,address)":"f3cf024f","sendERC20(address,address,uint256,uint256,bytes,address)":"0fc32b2f","supportsInterface(bytes4)":"01ffc9a7","usedSignatures(bytes32)":"f978fd61"},"id":19}